:1B000000F022F024F026F028F02AF02CF02EF032B400000000B40000000000B3
:20F000006E9F00006E9F00026E9F00046E9F00066E9F00086E9F000A6E9F000C6E9F000E50
:20F0200020FE20FE20FE20FE20FE20FE20FE20FE20FE10CE0400CE0200860AB71C0286CA5B
:20F04000B71C0886C9B71C09BDF16F8EFE00BDF1248EFE11BDF1248EFE34BDF124BDF07F02
:20F06000BDF07620F2434CD34C4F41C4455845C352455345D4003432BDF07E3532393986C1
:20F08000FFB71C3B7F1C3CFC0011FD0016B61C28810D2628B61C29CC20B4ED9F00117F00DF
:20F0A000137C0014B60014B11C0B2D067A0014BDF1ABBDF1E0BF00117F1C3B39108E1C3C8E
:20F0C000BE0016B61C3A34022604A6A4261DB61C3A270EA6A0270AC6B4ED816AE4270C2022
:20F0E000F235028620A7818D1420A23502A6A0A7818D0AA6A02796C6B4ED8120F63456FEF1
:20F100000016B61C0784072618B600104C840F8AF0B70010F61C3A585CA7C55A33C5FF0094
:20F12000113556393412A68027072B05BDF13420F5351239341681202C09810A2603BDF137
:20F140008C2029BDF1E0F60015ED847C0013B60013B11C0A2C0220147F00137C0014B60067
:20F1600014B11C0B2D06BDF1AB7A001435163934167F00137F0014BDF1E08E04008620F6DA
:20F180000015ED818C1C002DF935163934127F00137C0014B60014B11C0B2D067A0014BD12
:20F1A000F1ABBDF1E0BF00113512393436108E0400F61C0A588E04003085EC81EDA1BC1C3B
:20F1C000002DF78E0400F61C0B5A58B61C0A3D308B8620F60015ED81BC1C002DF935363915
:1BF1E00034068E0400B60014F61C0A583D308BF60013583085BF0011350639B8
:20FE0000526574726F20363830392076302E310A00436F70797269676874202843292032F1
:1BFE2000303233204279204A6179204661726965730A0A0052656164790A0086
:10FFF000F000F004F008F00CF010F014F018F01C11
:00E000011F
