:1B000000F022F024F026F028F02AF02CF02EF032B400000000B40000000000B3
:20F000006E9F00006E9F00026E9F00046E9F00066E9F00086E9F000A6E9F000C6E9F000E50
:20F0200020FE20FE20FE20FE20FE20FE20FE20FE20FE10CE0400CE0200860AB71C0286CA5B
:20F04000B71C0886C9B71C09BDF2B88EFE00BDF26D8EFE11BDF26D8EFE34BDF26DBDF1C890
:20F06000BDF10520F2636C7300636F6C6F72006C6F6164006578656300726573657400FF03
:20F08000F117F11BF122F129F13020004552524F523A2053796E7461780A00434C53206314
:20F0A0006F6D6D616E64206973737565640A00434F4C4F5220636F6D6D616E642069737330
:20F0C0007565640A004C4F414420636F6D6D616E64206973737565640A004558454320636A
:20F0E0006F6D6D616E64206973737565640A00524553455420636F6D6D616E6420697373EC
:20F100007565640A00BDF13481FF270220013912488EF080AD9639BDF2B8398EF0AFBDF272
:20F120006D398EF0C5BDF26D398EF0DABDF26D396E9F000E34304F3402108EF0658E1C3C07
:20F14000BDF169271A8E1C3CA6A081FF2604A7E42008810026F26CE420E38EF08C20022096
:20F1600003BDF26D3502353039343486003402A6842726812027228122271E810D271AE679
:20F18000A42728C1202724C1222720C10D271C8A203001A1A027D82024E6A42724C12027D9
:20F1A00020C122271CC10D27182012A68427128120270E8122270A810D2706200086FFA7B6
:20F1C000E43502353481003986FFB71C3B7F1C3CFC0011FD0016B61C28810D2628B61C2996
:20F1E000CC20B4ED9F00117F00137C0014B60014B11C0B2D067A0014BDF2F4BDF329BF0012
:20F20000117F1C3B39108E1C3CBE0016B61C3A34022604A6A4261DB61C3A270EA6A0270A53
:20F22000C6B4ED816AE4270C20F235028620A7818D1420A23502A6A0A7818D0AA6A02796AC
:20F24000C6B4ED8120F63456FE0016B61C0784072618B600104C840F8AF0B70010F61C3A3E
:20F26000585CA7C55A33C5FF00113556393412A68027072B05BDF27D20F5351239341681F2
:20F28000202C09810A2603BDF2D52029BDF329F60015ED847C0013B60013B11C0A2C0220C6
:20F2A000147F00137C0014B60014B11C0B2D06BDF2F47A001435163934167F00137F00141F
:20F2C000BDF3298E04008620F60015ED818C1C002DF935163934127F00137C0014B6001420
:20F2E000B11C0B2D067A0014BDF2F4BDF329BF00113512393436108E0400F61C0A588E0497
:20F30000003085EC81EDA1BC1C002DF78E0400F61C0B5A58B61C0A3D308B8620F60015ED6E
:20F3200081BC1C002DF935363934068E0400B60014F61C0A583D308BF60013583085BF00D3
:04F340001135063944
:20FE0000526574726F20363830392076302E310A00436F70797269676874202843292032F1
:1BFE2000303233204279204A6179204661726965730A0A0052656164790A0086
:10FFF000F000F004F008F00CF010F014F018F01C11
:00E000011F
