:1B000000F022F024F026F028F02AF02CF02EF032B400000000B40000000000B3
:20F000006E9F00006E9F00026E9F00046E9F00066E9F00086E9F000A6E9F000C6E9F000E50
:20F0200020FE20FE20FE20FE20FE20FE20FE20FE20FE10CE0400CE0400860AB71C0286CA59
:20F04000B71C0886C9B71C0986B4B70010B70015BDF3EA8EFE00BDF39F8EFE12BDF39F86F5
:20F0600002B71C7DB61C872705BDF3AF20F6860ABDF3AF8EFE28BDF39F8EFE4BBDF39FBD6F
:20F08000F2F9BDF17B20F2636C7300636F6C6F72006C6F6164006578656300726573657481
:20F0A00000646972006368646972006578697400FFF18CF19DF1ABF1B2F1B9F1BDF1D2F1F8
:20F0C000D920004552524F523A2053796E7461780A00434C5320636F6D6D616E64206973E5
:20F0E000737565640A00434F4C4F5220636F6D6D616E64206973737565640A004C4F414400
:20F1000020636F6D6D616E64206973737565640A004558454320636F6D6D616E6420697319
:20F12000737565640A00524553455420636F6D6D616E64206973737565640A0044495220DC
:20F14000636F6D6D616E64206973737565640A00434844495220636F6D6D616E64206973B4
:20F16000737565640A004558495420636F6D6D616E64206973737565640A00BDF24F81FF66
:20F180002702200139488EF0B1AD9639BDF2172605BDF3EA20068EF0C3BDF39F39BDF217B9
:20F1A000260220068EF0C3BDF39F398EF0FCBDF39F398EF111BDF39F396E9F000EBDF1E570
:20F1C00012108E0100A680A7A026FA12860BB71C7D398EF150BDF39F398EF166BDF39F86B4
:20F1E00001B71C7D3934028E1C3CA6802704812026F835023934041F89C030C1092E0220FF
:20F20000111F89CA20C1662E04C0572005350486FF391F983504393414BDF284A680272AA4
:20F22000812427041CFB2024E60227F8C12026F44F3402A6808DBE48484848A7E4A6808D4D
:20F24000B4AAE4A7E43502B700151A0435143934344F3402108EF0878E1C3CBDF29A271ACC
:20F260008E1C3CA6A081FF2604A7E42008810026F26CE420E38EF0C320022003BDF39F350F
:20F280000235343934028E1C3CA680270A812027068124270220F235023934348600340215
:20F2A000A6842726812027228122271E810D271AE6A42728C1202724C1222720C10D271CF6
:20F2C0008A203001A1A027D82024E6A42724C1202720C122271CC10D27182012A68427120A
:20F2E0008120270E8122270A810D2706200086FFA7E43502353481003986FFB71C3B7F1CF1
:20F300003CFC0011FD0016B61C29810D26278620F60015ED9F00117F00137C0014B6001481
:20F32000B11C0B2D067A0014BDF426BDF45BBF00117F1C3B39108E1C3CBE0016B61C3A3468
:20F34000022604A6A4261EB61C3A270FA6A0270BF60015ED816AE4270C20F135028620A7AA
:20F36000818D1520A23502A6A0A7818D0BA6A02796F60015ED8120F53456FE0016B61C0763
:20F3800084072618B600104C840F8AF0B70010F61C3A585CA7C55A33C5FF001135563934F8
:20F3A00012A68027072B05BDF3AF20F5351239341681202C09810A2603BDF4072029BDF43D
:20F3C0005BF60015ED847C0013B60013B11C0A2C0220147F00137C0014B60014B11C0B2DD4
:20F3E00006BDF4267A001435163934167F00137F0014BDF45B8E04008620F60015ED818C66
:20F400001C002DF935163934127F00137C0014B60014B11C0B2D067A0014BDF426BDF45B78
:20F42000BF00113512393436108E0400F61C0A588E04003085EC81EDA1BC1C002DF78E042C
:20F4400000F61C0B5A58B61C0A3D308B8620F60015ED81BC1C002DF935363934068E04007C
:16F46000B60014F61C0A583D308BF60013583085BF001135063906
:20FE0000526574726F20363830392076302E31200A00456D756C61746F7220636F6D70690F
:20FE20006C6564206F6E2000436F70797269676874202843292032303233204279204A6176
:12FE400079204661726965730A0A0052656164790A00AA
:10FFF000F000F004F008F00CF010F014F018F01C11
:00E000011F
