:20F000007EF0AF526574726F2036383039204B65726E656C20524F4D2056302E340A0045EA
:20F020006D756C61746F7220636F6D70696C65642000474E552047656E6572616C20507592
:20F04000626C6963204C697363656E7365202847504C205633290A00436F70797269676874
:20F06000742028432920323032342D32303235204279204A6179204661726965730A0A00DD
:20F0800052656164790A00000000000000000000000000000000007EF0977EF09A7EF09D59
:20F0A0007EF0A07EF0A37EF0A67EF0A97EF0ACFC000E1083000027046E9F000E8EFFF0CEBE
:20F0C0000000EC81EDC18C00002DF7CCF0E1FD000E8E0010CC0000BF0400ED818CF0002680
:20F0E000F610CE0400864BB7001286F1C660FDFE0B103F018EF003103F058EF01F103F05E5
:20F100008602B7FE59B6FE622705103F0220F6860A103F028EF032103F058EF058103F05A1
:20F12000B6FE288A08B7FE28F600128EF080103F0586FFB7FE437FFE417F01008E01006F71
:20F14000808C017F2DF9BDF289103F007EF14CF17DF196F1B3F1E8F204F21EF238F256F2DF
:20F1600085F302EE6AE6C43341EF6ACEF14F5833C51183F1632C026ED47EF1813BBDF18136
:20F180003BCC01008E0400C30001ED81C30001BCFE0D2DF620EEBDF19A3B3416F60012868C
:20F1A000208E0400ED81BCFE0D2DF97F00107F00113596A661BDF1B93B3417F600124D27E8
:20F1C00025810A2605BDF1EC201C81092605BDF2082013BDF23EED847C0010B60010B1FE80
:20F1E000132D03BDF1EC3597BDF1EC3B34167F00107C0011B60011B1FE142D067A0011BD26
:20F20000F25A3596BDF2083B3404F60010CB04C4FCF70010F1FE132D03BDF1EC3584AE647A
:20F22000BDF2243B34561F13BDF23EA6C02707BDF1B9300120F535D6BDF23EAF643B340656
:20F24000B60011F6FE13583D8E0400308BF60010584F308B3586BDF25A3B34568E04001F5C
:20F2600013F6FE13584F33CBECC1ED8111B3FE0D2DF68620A781BCFE0D2DF97DFE42270320
:20F280007A001435D6BDF2893B3457FC0010FD00138601B7FE42FC0013FD0010CE0100F65C
:20F2A000FE41F700157D0015270C7A0015A6C02705BDF1B920EF8620F6FE0358C4F06DC4CD
:20F2C0002702A6C0BDF23EED847C0010A6C02705BDF1B920F78620BDF23E8620F60012ED77
:20F2E00084B6FE3027B0810D26AC7FFE42BDF23E8620ED1EFC0013FD00108E0100BDF22494
:17F3000035D7BDF3063B3405F6FE3026FBF6FE2E27FBB6FE30358599
:10FFF000F097F09AF163F0A0F0A3F0A6F0A9F0005A
:00000001FF
