:20F000007EF1E2526574726F2036383039204B65726E656C20524F4D2056302E342E310A9C
:20F0200000456D756C61746F7220636F6D70696C65642000474E552047656E6572616C2012
:20F040005075626C6963204C697363656E7365202847504C205633290A00436F707972697E
:20F060006768742028432920323032342D32303235204279204A6179204661726965730A18
:20F080000A0052656164790A00636C7300636F6C6F72006C6F616400657865630072657377
:20F0A0006574006469720063640063686469720070776400657869740071756974006D6FC3
:20F0C00064650064656275670068656C7000FFF2B9F2D5F32CF367F36CF372F384F384F328
:20F0E0008EF3A1F3A2F3A8F3DAF40B4552524F523A20436F6D6D616E64204E6F7420466F29
:20F10000756E640A002076616C696420636F6D6D616E6473206172653A0A2020636C732CB2
:20F12000202020636F6C6F722C206C6F61642C0A2020657865632C202072657365742C206E
:20F140006469722C0A202063642C2020202063686469722C207077642C0A202065786974B6
:20F160002C2020717569742C20206D6F64650A202064656275672C20616E642068656C70B6
:20F180000A00F49BF4BEF4F7F533F551F571F5A7F62FF648F670F688F6BDF719F73DF75143
:20F1A000F766F77BF790F7A5F7BAF7CFF7DEF7EDF7FCF80BF81AF829F855F866F877F8955D
:20F1C000F8A6F8B7F8DAF8ECF8FEF91E397EF1CD7EF1D07EF1D37EF1D67EF1D97EF1DC7ED3
:20F1E000F1DFFC000E1083000027046E9F000E8EFFF0CE0000EC81EDC18C00002DF7CCF288
:20F200002EFD000E860FB7FE008E0010CC0000BF0400ED818CB00026F68EF182108E0010C9
:20F22000A680A7A08CF1CC2DF7860AB7FE0010CE0400864BB7005C103F018EF003103F05C4
:20F240008EF021103F058602B7FE87B6FE902705103F0220F6860A103F028EF034103F0539
:20F260008EF05A103F05B6FE568A08B7FE56F6005C8EF082103F05867FB7FE717FFE6F7F7F
:20F2800001008E01006F808C017F2DF9BDF5A3BDF6B97D0100270D81FF2710483001108E7C
:20F2A000F0CFADB67D010027E320C38EF0EBBDF52F20F1103F007EF2B66D84270FA684811F
:20F2C000FF2709BDF91A4D2703B7005C8620F6005CBDF497396D84270DBDF91A4D2707813B
:20F2E000FF2703B7005C394552524F523A2046696C65204E6F7420466F756E640A00455227
:20F30000524F523A2046696C65204E6F74204F70656E0A004552524F523A2057726F6E6722
:20F320002046696C6520547970650A00BDF35C860AB7FE87B6FE868101271A8102270E8153
:20F3400005270220168EF314BDF52F200E8EF2FEBDF52F20068EF2E7BDF52F397FFE8FA6ED
:20F3600080B7FE9026F939AD9F0000398600B7FE87398DE8860CB7FE87B6FE942705BDF488
:20F38000BA20F6398DD6860EB7FE877EF38E860FB7FE877FFE8FB6FE902705BDF4BA20F664
:20F3A00039128601B7FE87396D842718BDF91A8407B70062B6FE0C84F8BA0062B7FE0C86C3
:20F3C00020BDF497392000656E61626C65640A0064697361626C65640A00B6FE0A8480276C
:20F3E00015B6FE0A847FB7FE0A8EF3C5BDF52F8EF3D0BDF52F39B6FE0A8A80B7FE0A8EF3DE
:20F40000C5BDF52F8EF3C7BDF52F398EF105BDF52F39F47AF493F4B4F4EFF50FF529F54768
:20F42000F569F59FF627F640F668F680F6B5F712F735F749F75EF773F788F79DF7B2F7C75A
:20F44000F7D6F7E5F7F4F803F812F821F84DF85EF86FF88DF89EF8AFF8D2F8E4F8F6F91693
:20F46000EE6AE6C43341EF6ACEF4125833C51183F4602C026ED47EF47E3BBDF47E3BCC01DF
:20F48000008E0400C30001ED81C30001BCFE0D2DF620EEBDF4973B6E9F00103416B6005CF0
:20F4A000C6208E0400ED81BCFE0D2DF97F005A7F005B3596A661BDF4BA3B6E9F00123417E4
:20F4C0001F89B6005C5D2725C10A2605BDF4F3201CC1092605BDF5132013BDF54DED847C1A
:20F4E000005AB6005AB1FE132D03BDF4F33597BDF4F33B6E9F001434167F005A7C005BB690
:20F50000005BB1FE142D067A005BBDF56D3596BDF5133B3404F6005ACB04C4FCF7005AF182
:20F52000FE132D03BDF4F33584AE64BDF52F3B6E9F001634561F13BDF54DA6C02707BDF4DC
:20F54000BA300120F535D6BDF54DAF643B6E9F00183406B6005BF6FE13583D8E0400308BFA
:20F56000F6005A584F308B3586BDF56D3B6E9F001A34568E04001F13F6FE13584F33CBECB7
:20F58000C1ED8111B3FE0D2DF6B6005CC620ED81BCFE0D2DF97DFE7027037A005E35D6BD42
:20F5A000F5A33B6E9F001C3457FC005AFD005D8601B7FE70FC005DFD005ACE0100F6FE6F86
:20F5C000F7005F7D005F270C7A005FA6C02705BDF4BA20EF8620F6FE0358C4F06DC42702DE
:20F5E000A6C0BDF54D1E89ED847C005AA6C02705BDF4BA20F78620BDF54D8620F6005C1EE9
:20F6000089ED84B6FE5E27AC810D26A87FFE70BDF54DB6005CC620ED1EFC005DFD005A8E82
:20F620000100BDF52F35D7BDF62B3B6E9F001E3405F6FE5E26FBF6FE5C27FBB6FE5E3585AE
:20F64000BDF6443B6E9F002034018DDF81302DFA8139231281412DF28146230A81612DEA15
:20F660008166230220E43581BDF66C3B6E9F002234018DB781302DFA8139230220F4358141
:20F68000BDF6843B6E9F002434066D8426066DA4271E20106DA42712A6808A20A1A02D045E
:20F6A0002E0820E68601810220098602810120034F81003586BDF6B93B6E9F002634058E82
:20F6C0000100108E0180A68081412D04815A2E00A7A026F286FFA7A48E0180A680272381B9
:20F6E000FF271F8127270C81222708812026EC6F1F20E8A18027E46D8426F8BDF4F386FF6B
:20F70000200E860ABDF4BA108EF0898E01808D053585BDF7156E9F002834651F134F1F31E6
:20F72000BDF684270E4CE6A0C1FF27055D26F720ED86FF35E5BDF7393B6E9F002A3407ECF3
:20F7400084EDA4EC02ED223587BDF74D3B6E9F002C34017FFE977FFE98FDFE993581BDF70A
:20F76000623B6E9F002E34017FFEA17FFEA2FDFEA33581BDF7773B6E9F003034017FFEABEB
:20F780007FFEACFDFEAD3581BDF78C3B6E9F003234017FFE9B7FFE9CFDFE9D3581BDF7A11F
:20F7A0003B6E9F003434017FFEA57FFEA6FDFEA73581BDF7B63B6E9F003634017FFEAF7F33
:20F7C000FEB0FDFEB13581BDF7CB3B6E9F00383401FCFE993581BDF7DA3B6E9F003A340157
:20F7E000FCFEA33581BDF7E93B6E9F003C3401FCFEAD3581BDF7F83B6E9F003E3401FCFEA2
:20F800009D3581BDF8073B6E9F00403401FCFEA73581BDF8163B6E9F00423401FCFEB1355B
:20F8200081BDF8253B6E9F004434417FFE9B7FFE9C7FFE9DB7FE9E7FFEA57FFEA67FFEA765
:20F84000F7FEA81F30F7FEB3FCFEB135C1BDF8513B6E9F004634118EFE958D243591BDF84D
:20F86000623B6E9F004834118EFE9F8D133591BDF8733B6E9F004A34118EFEA98D02359137
:20F8800034036F84A601BDF4BA26F93583BDF8913B6E9F004C34118EFE958D243591BDF8E9
:20F8A000A23B6E9F004E34118EFE958D133591BDF8B33B6E9F005034118EFEA98D02359175
:20F8C00034036F84A601812E2706BDF4BA4D26F43583BDF8D63B6E9F00523431108EFE9536
:20F8E0008D2635B1BDF8E83B6E9F00543431108EFE9F8D1435B1BDF8FA3B6E9F005634315D
:20F90000108EFEA98D0235B134316FA0A6802704A7A420F835B1BDF91A3B6E9F0058341566
:20F92000E684C1242708BDF8D6B6FE9E20123001E6808D0E585858583404E6808D04AAE0EF
:1BF9400035953404C0302B0CC1092304CA20C027C10F2302C6FFE1E01F983956
:10FFF000F1CCF1CDF460F1D3F1D6F1D9F1DCF00020
:00000001FF
