:1B000000F022F024F026F028F02AF02CF02EF032B400000000B40000000000B3
:20F000006E9F00006E9F00026E9F00046E9F00066E9F00086E9F000A6E9F000C6E9F000E50
:20F0200020FE20FE20FE20FE20FE20FE20FE20FE20FE10CE0400CE04008609B71C0286CE56
:20F04000B71C0886C9B71C0986B4B70010B70015BDF4678EFE00BDF41C8EFE13BDF41C867A
:20F0600002B71C7DB61C882705BDF42C20F6860ABDF42C8EFE29BDF41C8EFE4CBDF41CBD74
:20F08000F365BDF1A481FE27F620EE2000636C7300636F6C6F72006C6F6164006578656356
:20F0A00000726573657400646972006364006368646972006578697400FFF1B5F1B8F1C95B
:20F0C000F1D7F1DEF1E5F1E9F20DF20DF24520004552524F523A2053796E7461780A0045DA
:20F0E00052524F523A204469726563746F7279204E6F7420466F756E640A00434C532063E0
:20F100006F6D6D616E64206973737565640A00434F4C4F5220636F6D6D616E6420697373CF
:20F120007565640A004C4F414420636F6D6D616E64206973737565640A0045584543206309
:20F140006F6D6D616E64206973737565640A00524553455420636F6D6D616E64206973738B
:20F160007565640A0044495220636F6D6D616E64206973737565640A0043484449522063C5
:20F180006F6D6D616E64206973737565640A004558495420636F6D6D616E6420697373751F
:20F1A00065640A00BDF2BB81FF2702200139488EF0BAAD963986FE39BDF2832605BDF467E1
:20F1C00020068EF0D0BDF41C39BDF283260220068EF0D0BDF41C398EF125BDF41C398EF1B8
:20F1E0003ABDF41C396E9F000EBDF25112108E0100A680A7A026FA12860BB71C7DB61C8928
:20F200002705BDF42C20F6860ABDF42C39BDF251127F1C87A680B71C8826F9860DB71C7D72
:20F220002010B61C7C844027098EF0DFBDF41C7F1C7C860EB71C7DBDF42CB61C882705BD17
:20F24000F42C20F6398EF18FBDF41C8601B71C7D3934028E1C3CA6802704812026F83502F1
:20F260003934041F89C030C1092E0220111F89CA20C1662E04C0572005350486FF391F9885
:20F280003504393414BDF2F0A680272A812427041CFB2024E60227F8C12026F44F3402A646
:20F2A000808DBE48484848A7E4A6808DB4AAE4A7E43502B700151A0435143934344F3402C8
:20F2C000108EF08B8E1C3CBDF306271A8E1C3CA6A081FF2604A7E42008810026F26CE420A6
:20F2E000E38EF0D020022003BDF41C350235343934028E1C3CA680270A81202706812427E5
:20F300000220F2350239343486003402A6842726812027228122271E810D271AE6A4272854
:20F32000C1202724C1222720C10D271C8A203001A1A027D82024E6A42724C1202720C12227
:20F34000271CC10D27182012A68427128120270E8122270A810D2706200086FFA7E43502FC
:20F36000353481003986FFB71C3B7F1C3CFC0011FD0016B61C29810D26278620F60015ED6C
:20F380009F00117F00137C0014B60014B11C0B2D067A0014BDF4A3BDF4D9BF00117F1C3BB4
:20F3A00039108E1C3CBE0016B61C3A34022604A6A4261EB61C3A270FA6A0270BF60015ED9E
:20F3C000816AE4270C20F135028620A7818D1520A23502A6A0A7818D0BA6A02796F6001566
:20F3E000ED8120F53456FE001111B31C002D0ABDF467355635507EF079FE0016B61C07845A
:20F40000072616B600104C840FB70010F61C3A585CA7C55A33C5FF00113556393412A6803F
:20F4200027072B05BDF42C20F5351239341681202C09810A2603BDF4842029BDF4D9F6002A
:20F4400015ED847C0013B60013B11C0A2C0220147F00137C0014B60014B11C0B2D06BDF4ED
:20F46000A37A001435163934167F00137F0014BDF4D98E04008620F60015ED818C1C002D58
:20F48000F935163934127F00137C0014B60014B11C0B2D067A0014BDF4A3BDF4D9BF001176
:20F4A0003512393436108E0400F61C0A8E040030853085EC81EDA1BC1C002DF78E0400F629
:20F4C0001C0B5A58B61C0A3D308B8620F60015ED81BC1C002DF935363934068E0400B6003C
:14F4E00014F61C0A583D308BF60013583085BF00113506393E
:20FE0000526574726F20363830392076302E3261200A00456D756C61746F7220636F6D7016
:20FE2000696C6564206F6E2000436F70797269676874202843292032303233204279204A6E
:13FE40006179204661726965730A0A0052656164790A0048
:10FFF000F000F004F008F00CF010F014F018F01C11
:00000001FF
