:1B0000000000F022F024F026F028F02AF02CF030B400000000B40000000000D3
:20F000006E9F00006E9F00026E9F00046E9F00066E9F00086E9F000A6E9F000C6E9F000E50
:20F0200020FE20FE20FE20FE20FE20FE20FE20FE10CE0400CE0000FF0000CE0400860CB716
:20F040001C0286CEB71C0886C9B71C0986B4B70010B70015BDF46E8EFE00BDF4238EFE134D
:20F06000BDF4238602B71C8FB61C9A2705BDF43320F6860ABDF4338EFE29BDF4238EFE4C6B
:20F08000BDF423BDF36CBDF14481FE27F620EE2000636C7300636F6C6F72006C6F616400C3
:20F0A0006578656300726573657400646972006364006368646972006578697400FFF15579
:20F0C000F158F169F177F1B2F1F2F1F6F21AF21AF25220004552524F523A2053796E746149
:20F0E000780A004552524F523A204469726563746F7279204E6F7420466F756E640A004539
:20F1000052524F523A2046696C65204E6F7420466F756E640A004552524F523A2046696C5A
:20F1200065204E6F74204F70656E0A004552524F523A2057726F6E672046696C65205479DF
:20F1400070650A00BDF2C281FF2702200139488EF0BEAD963986FE39BDF28A2605BDF46E1C
:20F1600020068EF0D4BDF42339BDF28A260220068EF0D4BDF423397F1C99BDF25812A680B1
:20F18000B71C9A26F98609B71C8FB61C8E8180271A8120270E8104270220168EF12CBDF43A
:20F1A00023200E8EF116BDF42320068EF0FFBDF42339B61C083402B61C093402B6001534C5
:20F1C00002B61C023402CC000010B300002704AD9F00003502B71C023502B700153502B126
:20F1E0001C092703B71C093502B11C082703B71C08396E9F000EBDF25812108E0100A680A1
:20F20000A7A026FA12860BB71C8FB61C9B2705BDF43320F6860ABDF43339BDF258127F1C8E
:20F2200099A680B71C9A26F9860DB71C8F2010B61C8E844027098EF0E3BDF4237F1C8E8626
:20F240000EB71C8FBDF433B61C9A2705BDF43320F6398601B71C8F3934028E1C3CA6802704
:20F2600004812026F835023934041F89C030C1092E0220111F89CA20C1662E04C057200539
:20F28000350486FF391F983504393414BDF2F7A680272A812427041CFB2024E60227F8C1F6
:20F2A0002026F44F3402A6808DBE48484848A7E4A6808DB4AAE4A7E43502B700151A04359D
:20F2C000143934344F3402108EF08F8E1C3CBDF30D271A8E1C3CA6A081FF2604A7E420086A
:20F2E000810026F26CE420E38EF0D420022003BDF423350235343934028E1C3CA680270A6B
:20F30000812027068124270220F2350239343486003402A6842726812027228122271E81E1
:20F320000D271AE6A42728C1202724C1222720C10D271C8A203001A1A027D82024E6A4272F
:20F3400024C1202720C122271CC10D27182012A68427128120270E8122270A810D27062014
:20F360000086FFA7E43502353481003986FFB71C3B7F1C3CFC0011FD0016B61C29810D26EA
:20F38000278620F60015ED9F00117F00137C0014B60014B11C0B2D067A0014BDF4AABDF467
:20F3A000E0BF00117F1C3B39108E1C3CBE0016B61C3A34022604A6A4261EB61C3A270FA6E2
:20F3C000A0270BF60015ED816AE4270C20F135028620A7818D1520A23502A6A0A7818D0BAA
:20F3E000A6A02796F60015ED8120F53456FE001111B31C002D0ABDF46E355635507EF07DB2
:20F40000FE0016B61C0784072616B600104C840FB70010F61C3A585CA7C55A33C5FF0011FE
:20F420003556393412A68027072B05BDF43320F5351239341681202C09810A2603BDF48BB5
:20F440002029BDF4E0F60015ED847C0013B60013B11C0A2C0220147F00137C0014B60014D9
:20F46000B11C0B2D06BDF4AA7A001435163934167F00137F0014BDF4E08E04008620F600E6
:20F4800015ED818C1C002DF935163934127F00137C0014B60014B11C0B2D067A0014BDF41B
:20F4A000AABDF4E0BF00113512393436108E0400F61C0A8E040030853085EC81EDA1BC1CCA
:20F4C000002DF78E0400F61C0B5A58B61C0A3D308B8620F60015ED81BC1C002DF935363912
:1BF4E00034068E0400B60014F61C0A583D308BF60013583085BF0011350639B5
:20FE0000526574726F20363830392076302E3261200A00456D756C61746F7220636F6D7016
:20FE2000696C6564206F6E2000436F70797269676874202843292032303233204279204A6E
:13FE40006179204661726965730A0A0052656164790A0048
:10FFF000F000F004F008F00CF010F014F018F01C11
:00000001FF
