:1B000000F022F024F026F028F02AF02CF02EF032B400000000B40000000000B3
:20F000006E9F00006E9F00026E9F00046E9F00066E9F00086E9F000A6E9F000C6E9F000E50
:20F0200020FE20FE20FE20FE20FE20FE20FE20FE20FE10CE0400CE0400860AB71C0286CA59
:20F04000B71C0886C9B71C0986B4B70010B70015BDF38A8EFE00BDF33F8EFE11BDF33F8E0E
:20F06000FE34BDF33FBDF299BDF14520F2636C7300636F6C6F72006C6F616400657865637C
:20F080000072657365740064697200636864697200FFF156F167F175F17CF183F187F18E28
:20F0A00020004552524F523A2053796E7461780A00434C5320636F6D6D616E64206973736B
:20F0C0007565640A00434F4C4F5220636F6D6D616E64206973737565640A004C4F41442073
:20F0E000636F6D6D616E64206973737565640A004558454320636F6D6D616E6420697373E7
:20F100007565640A00524553455420636F6D6D616E64206973737565640A0044495220630C
:20F120006F6D6D616E64206973737565640A00434844495220636F6D6D616E6420697373C4
:20F140007565640A00BDF1EF81FF2702200139488EF092AD9639BDF1B72605BDF38A200603
:20F160008EF0A2BDF33F39BDF1B7260220068EF0A2BDF33F398EF0DBBDF33F398EF0F0BDA0
:20F18000F33F396E9F000E8EF11BBDF33F398EF12FBDF33F3934041F89C030C1092E022067
:20F1A000111F89CA20C1662E04C0572005350486FF391F983504393414BDF224A680272A65
:20F1C000812427041CFB2024E60227F8C12026F44F3402A6808DBE48484848A7E4A6808DAE
:20F1E000B4AAE4A7E43502B700151A0435143934344F3402108EF06D8E1C3CBDF23A271AA7
:20F200008E1C3CA6A081FF2604A7E42008810026F26CE420E38EF0A220022003BDF33F35F0
:20F220000235343934028E1C3CA680270A812027068124270220F235023934348600340275
:20F24000A6842726812027228122271E810D271AE6A42728C1202724C1222720C10D271C56
:20F260008A203001A1A027D82024E6A42724C1202720C122271CC10D27182012A68427126A
:20F280008120270E8122270A810D2706200086FFA7E43502353481003986FFB71C3B7F1C51
:20F2A0003CFC0011FD0016B61C29810D26278620F60015ED9F00117F00137C0014B60014E2
:20F2C000B11C0B2D067A0014BDF3C6BDF3FBBF00117F1C3B39108E1C3CBE0016B61C3A348B
:20F2E000022604A6A4261EB61C3A270FA6A0270BF60015ED816AE4270C20F135028620A70B
:20F30000818D1520A23502A6A0A7818D0BA6A02796F60015ED8120F53456FE0016B61C07C3
:20F3200084072618B600104C840F8AF0B70010F61C3A585CA7C55A33C5FF00113556393458
:20F3400012A68027072B05BDF34F20F5351239341681202C09810A2603BDF3A72029BDF35F
:20F36000FBF60015ED847C0013B60013B11C0A2C0220147F00137C0014B60014B11C0B2D94
:20F3800006BDF3C67A001435163934167F00137F0014BDF3FB8E04008620F60015ED818C88
:20F3A0001C002DF935163934127F00137C0014B60014B11C0B2D067A0014BDF3C6BDF3FB9B
:20F3C000BF00113512393436108E0400F61C0A588E04003085EC81EDA1BC1C002DF78E048D
:20F3E00000F61C0B5A58B61C0A3D308B8620F60015ED81BC1C002DF935363934068E0400DD
:16F40000B60014F61C0A583D308BF60013583085BF001135063966
:20FE0000526574726F20363830392076302E310A00436F70797269676874202843292032F1
:1BFE2000303233204279204A6179204661726965730A0A0052656164790A0086
:10FFF000F000F004F008F00CF010F014F018F01C11
:00E000011F
