:1B0000000000F022F024F026F028F02AF02CF030B400000000B40000000000D3
:20F000006E9F00006E9F00026E9F00046E9F00066E9F00086E9F000A6E9F000C6E9F000E50
:20F0200020FE20FE20FE20FE20FE20FE20FE20FE10CE0400CE0000FF0000CE0400860AB718
:20F04000240286B4B70010B70015BDF4438EFE00BDF3F88EFE1DBDF3F88602B72552B625B3
:20F060005D2705BDF40820F6860ABDF4088EFE33BDF3F88EFE56BDF3F8BDF346BDF13A819F
:20F08000FE27F620EE2000636C7300636F6C6F72006C6F616400657865630072657365745E
:20F0A00000646972006364006368646972006578697400FFF14BF14EF15FF16DF1A8F1CA0A
:20F0C000F1D0F1F4F1F4F22C20004552524F523A2053796E7461780A004552524F523A200E
:20F0E0004469726563746F7279204E6F7420466F756E640A004552524F523A2046696C6580
:20F10000204E6F7420466F756E640A004552524F523A2046696C65204E6F74204F70656E11
:20F120000A004552524F523A2057726F6E672046696C6520547970650A00BDF29C81FF2776
:20F1400002200139488EF0B4AD963986FE39BDF2642605BDF44320068EF0CABDF3F839BD62
:20F16000F264260220068EF0CABDF3F8397F255CBDF23212A680B7255D26F98609B7255294
:20F18000B625518180271A8120270E8104270220168EF122BDF3F8200E8EF10CBDF3F8207D
:20F1A000068EF0F5BDF3F839B600153402B624023402CC000010B300002704AD9F000035A7
:20F1C00002B724023502B70015398600B7255239BDF23212108E0100A680A7A026FA128670
:20F1E0000BB72552B6255E2705BDF40820F6860ABDF40839BDF232127F255CA680B7255DCE
:20F2000026F9860DB725522010B62551844027098EF0D9BDF3F87F2551860EB72552BDF457
:20F2200008B6255D2705BDF40820F6398601B725523934028E243FA6802704812026F83500
:20F24000023934041F89C030C1092E0220111F89CA20C1662E04C0572005350486FF391F3B
:20F26000983504393414BDF2D1A680272A812427041CFB2024E60227F8C12026F44F340293
:20F28000A6808DBE48484848A7E4A6808DB4AAE4A7E43502B700151A0435143934344F3444
:20F2A00002108EF0858E243FBDF2E7271A8E243FA6A081FF2604A7E42008810026F26CE4F4
:20F2C00020E38EF0CA20022003BDF3F8350235343934028E243FA680270A8120270681242C
:20F2E000270220F2350239343486003402A6842726812027228122271E810D271AE6A42776
:20F3000028C1202724C1222720C10D271C8A203001A1A027D82024E6A42724C1202720C141
:20F3200022271CC10D27182012A68427128120270E8122270A810D2706200086FFA7E435FC
:20F3400002353481003986FFB7243E7F243FFC0011FD0016B6242C810D26278620F6001556
:20F36000ED9F00117F00137C0014B60014B1240C2D067A0014BDF47FBDF4B5BF00117F2459
:20F380003E39108E243FBE0016B6243D34022604A6A4261EB6243D270FA6A0270BF600154C
:20F3A000ED816AE4270C20F135028620A7818D1520A23502A6A0A7818D0BA6A02796F600AE
:20F3C00015ED8120F53456FE001111B324002D0ABDF443355635507EF073FE0016B6240703
:20F3E0004444448407B70010F6243D585CA7C55A33C5FF00113556393412A68027072B0588
:20F40000BDF40820F5351239341681202C09810A2603BDF4602029BDF4B5F60015ED847C12
:20F420000013B60013B1240B2C0220147F00137C0014B60014B1240C2D06BDF47F7A0014F0
:20F4400035163934167F00137F0014BDF4B58E04008620F60015ED818C24002DF935163948
:20F4600034127F00137C0014B60014B1240C2D067A0014BDF47FBDF4B5BF0011351239349E
:20F4800036108E0400F6240B8E040030853085EC81EDA1BC24002DF78E0400F6240C5A580A
:20F4A000B6240B3D308B8620F60015ED81BC24002DF935363934068E0400B60014F6240BEB
:10F4C000583D308BF60013583085BF001135063992
:20FE0000526574726F2036383039204B65726E656C20762E302E32322E36200A00456D7523
:20FE20006C61746F7220636F6D70696C6564206F6E2000436F7079726967687420284329A9
:1DFE40002032303234204279204A6179204661726965730A0A0052656164790A0011
:10FFF000F000F004F008F00CF010F014F018F01C11
:00000001FF
