:20F000007EF1F2526574726F2036383039204B65726E656C20524F4D2056302E340A0045A6
:20F020006D756C61746F7220636F6D70696C65642000474E552047656E6572616C20507592
:20F04000626C6963204C697363656E7365202847504C205633290A00436F70797269676874
:20F06000742028432920323032342D32303235204279204A6179204661726965730A0A00DD
:20F0800052656164790A00636C7300636F6C6F72006C6F61640065786563007265736574A8
:20F0A0000064697200636400636864697200657869740071756974006D6F646500646562F3
:20F0C00075670068656C7000FFF2D0F2ECF343F37EF383F389F39BF39BF3B5F3B6F3BCF364
:20F0E000E3F4144552524F523A20436F6D6D616E64204E6F7420466F756E640A0020766114
:20F100006C696420636F6D6D616E6473206172653A0A2020636C732C202020636F6C6F727B
:20F120002C206C6F61642C0A2020657865632C202072657365742C206469722C2063642C6F
:20F140000A202063686469722C20657869742C2020717569742C0A20206D6F64652C20209F
:20F1600064656275672C20657869742C0A2020717569742C20206D6F64652C2020646562A1
:20F1800075672C0A2020616E642068656C700A00F4A4F4C7F4FEF53AF558F578F5ABF62C27
:20F1A000F645F66DF685F6BAF716F73AF74EF763F778F78DF7A2F7B7F7CCF7DBF7EAF7F909
:20F1C000F808F817F826F852F863F874F892F8A3F8B4F8D7F8E9F8FBF91B7EF1DA7EF1DDD4
:20F1E0007EF1E07EF1E37EF1E67EF1E97EF1EC7EF1EFFC000E1083000027046E9F000E8E97
:20F20000FFF0CE0000EC81EDC18C00002DF7CCF23EFD000E860FB7FE008E0010CC0000BFEC
:20F220000400ED818CF00026F68EF190108E0010A680A7A08CF1DA2DF7860AB7FE0010CEFC
:20F240000400864BB7005C86F1C660FDFE0B103F018EF003103F058EF01F103F058602B7CE
:20F26000FE59B6FE622705103F0220F6860A103F028EF032103F058EF058103F05B6FE28A3
:20F280008A08B7FE28F6005C8EF080103F05867FB7FE437FFE417F01008E01006F808C0115
:20F2A0007F2DF9BDF5A7BDF6B67D0180270D81FF2710483001108EF0C9ADB67D010027E343
:20F2C00020C38EF0E3BDF53620F1103F007EF2CD6D84270FA68481FF2709BDF9174D270320
:20F2E000B7005C8620F6005CBDF4A0396D84270DBDF9174D270781FF2703B7005C3945527F
:20F30000524F523A2046696C65204E6F7420466F756E640A004552524F523A2046696C6545
:20F32000204E6F74204F70656E0A004552524F523A2057726F6E672046696C6520547970D2
:20F34000650A00BDF373860AB7FE59B6FE588101271A8102270E8105270220168EF32BBDA8
:20F36000F536200E8EF315BDF53620068EF2FEBDF536397FFE61A680B7FE6226F939AD9F32
:20F380000000398600B7FE59398DE8860CB7FE59B6FE662705BDF4C320F6398DD6860EB79B
:20F3A000FE59860FB7FE597FFE61B6FE622705BDF4C320F639128601B7FE59396D84270D6B
:20F3C000BDF9178401B7FE0C8620BDF4A0392000656E61626C65640A0064697361626C6521
:20F3E000640A00B6FE0A84802715B6FE0A847FB7FE0A8EF3CEBDF5368EF3D9BDF53639B6B9
:20F40000FE0A8A80B7FE0A8EF3CEBDF5368EF3D0BDF536398EF0FDBDF53639F483F49CF4DB
:20F42000BDF4F6F516F530F54EF570F5A3F624F63DF665F67DF6B2F70FF732F746F75BF73D
:20F4400070F785F79AF7AFF7C4F7D3F7E2F7F1F800F80FF81EF84AF85BF86CF88AF89BF828
:20F46000ACF8CFF8E1F8F3F913EE6AE6C43341EF6ACEF41B5833C51183F4692C026ED47E6E
:20F48000F4873BBDF4873BCC01008E0400C30001ED81C30001BCFE0D2DF620EEBDF4A03B6A
:20F4A0006E9F00103416F6005C86208E0400ED81BCFE0D2DF97F005A7F005B3596A661BDBE
:20F4C000F4C33B6E9F00123417F6005C4D2725810A2605BDF4FA201C81092605BDF51A20A7
:20F4E00013BDF554ED847C005AB6005AB1FE132D03BDF4FA3597BDF4FA3B6E9F00143416E2
:20F500007F005A7C005BB6005BB1FE142D067A005BBDF5743596BDF51A3B3404F6005ACB14
:20F5200004C4FCF7005AF1FE132D03BDF4FA3584AE64BDF5363B6E9F001634561F13BDF55A
:20F5400054A6C02707BDF4C3300120F535D6BDF554AF643B6E9F00183406B6005BF6FE1333
:20F56000583D8E0400308BF6005A584F308B3586BDF5743B6E9F001A34568E04001F13F670
:20F58000FE13584F33CBECC1ED8111B3FE0D2DF68620A781BCFE0D2DF97DFE4227037A008C
:20F5A0005E35D6BDF5A73B6E9F001C3457FC005AFD005D8601B7FE42FC005DFD005ACE01ED
:20F5C00000F6FE41F7005F7D005F270C7A005FA6C02705BDF4C320EF8620F6FE0358C4F0FA
:20F5E0006DC42702A6C0BDF554ED847C005AA6C02705BDF4C320F78620BDF5548620F60099
:20F600005CED84B6FE3027B0810D26AC7FFE42BDF5548620ED1EFC005DFD005A8E0100BD90
:20F62000F53635D7BDF6283B6E9F001E3405F6FE3026FBF6FE2E27FBB6FE303585BDF641FE
:20F640003B6E9F002034018DDF81302DFA8139231281412DF28146230A81612DEA81662302
:20F660000220E43581BDF6693B6E9F002234018DB781302DFA8139230220F43581BDF6811A
:20F680003B6E9F002434066D8426066DA4271E20106DA42712A6808A20A1A02D042E08203F
:20F6A000E68601810220098602810120034F81003586BDF6B63B6E9F002634058E010010CA
:20F6C0008E0180A68081412D04815A2E00A7A026F286FFA7A48E0180A680272381FF271F85
:20F6E0008127270C81222708812026EC6F1F20E8A18027E46D8426F8BDF4FA86FF200E86F5
:20F700000ABDF4C3108EF0878E01808D053585BDF7126E9F002834651F134F1F31BDF68162
:20F72000270E4CE6A0C1FF27055D26F720ED86FF35E5BDF7363B6E9F002A3407EC84EDA418
:20F74000EC02ED223587BDF74A3B6E9F002C34017FFE697FFE6AFDFE6B3581BDF75F3B6EA4
:20F760009F002E34017FFE737FFE74FDFE753581BDF7743B6E9F003034017FFE7D7FFE7EB6
:20F78000FDFE7F3581BDF7893B6E9F003234017FFE6D7FFE6EFDFE6F3581BDF79E3B6E9FBE
:20F7A000003434017FFE777FFE78FDFE793581BDF7B33B6E9F003634017FFE817FFE82FDB9
:20F7C000FE833581BDF7C83B6E9F00383401FCFE6B3581BDF7D73B6E9F003A3401FCFE75F5
:20F7E0003581BDF7E63B6E9F003C3401FCFE7F3581BDF7F53B6E9F003E3401FCFE6F35814E
:20F80000BDF8043B6E9F00403401FCFE793581BDF8133B6E9F00423401FCFE833581BDF8DA
:20F82000223B6E9F004434417FFE6D7FFE6E7FFE6FB7FE707FFE777FFE787FFE79F7FE7A71
:20F840001F30F7FE85FCFE8335C1BDF84E3B6E9F004634118EFE678D243591BDF85F3B6E6F
:20F860009F004834118EFE718D133591BDF8703B6E9F004A34118EFE7B8D02359134036FFB
:20F8800084A601BDF4C326F93583BDF88E3B6E9F004C34118EFE678D243591BDF89F3B6E6F
:20F8A0009F004E34118EFE678D133591BDF8B03B6E9F005034118EFE7B8D02359134036F79
:20F8C00084A601812E2706BDF4C34D26F43583BDF8D33B6E9F00523431108EFE678D26351C
:20F8E000B1BDF8E53B6E9F00543431108EFE718D1435B1BDF8F73B6E9F00563431108EFEDD
:20F900007B8D0235B134316FA0A6802704A7A420F835B1BDF9173B6E9F00583415E684C108
:20F92000242708BDF8D3B6FE7020123001E6808D0E585858583404E6808D04AAE03595344D
:18F9400004C0302B0CC1092304CA20C027C10F2302C6FFE1E01F983957
:10FFF000F1DAF1DDF469F1E3F1E6F1E9F1ECF000B9
:00000001FF
