:1B000000F022F024F026F028F02AF02CF02EF036B400000000B40000000000AF
:20F000006E9F00006E9F00026E9F00046E9F00066E9F00086E9F000A6E9F000C6E9F000E50
:20F0200020FE20FE20FE20FE20FE20FE20FE200220FEBDF4203B10CE0400CE04008609B7B8
:20F040001C0286CEB71C0886C9B71C0986B4B70010B70015BDF4208EFE00BDF3D58EFE12EB
:20F06000BDF3D58602B71C7DB61C872705BDF3E520F6860ABDF3E58EFE28BDF3D58EFE4BCE
:20F08000BDF3D5BDF31CBDF18C81FE27F620EE2000636C7300636F6C6F72006C6F6164001A
:20F0A0006578656300726573657400646972006364006368646972006578697400FFF19D31
:20F0C000F1A0F1B1F1BFF1C6F1CDF1D1F1F5F1F5F1FC20004552524F523A2053796E74614A
:20F0E000780A00434C5320636F6D6D616E64206973737565640A00434F4C4F5220636F6D18
:20F100006D616E64206973737565640A004C4F414420636F6D6D616E6420697373756564CC
:20F120000A004558454320636F6D6D616E64206973737565640A00524553455420636F6D08
:20F140006D616E64206973737565640A0044495220636F6D6D616E64206973737565640AC3
:20F1600000434844495220636F6D6D616E64206973737565640A004558495420636F6D6D69
:20F18000616E64206973737565640A00BDF27281FF2702200139488EF0BEAD963986FE39A4
:20F1A000BDF23A2605BDF42020068EF0D4BDF3D539BDF23A260220068EF0D4BDF3D5398E5F
:20F1C000F10DBDF3D5398EF122BDF3D5396E9F000EBDF20812108E0100A680A7A026FA12F2
:20F1E000860BB71C7DB61C882705BDF3E520F6860ABDF3E5398EF161BDF3D5398EF177BD4E
:20F20000F3D58601B71C7D3934028E1C3CA6802704812026F835023934041F89C030C109E0
:20F220002E0220111F89CA20C1662E04C0572005350486FF391F983504393414BDF2A7A6E2
:20F2400080272A812427041CFB2024E60227F8C12026F44F3402A6808DBE48484848A7E40F
:20F26000A6808DB4AAE4A7E43502B700151A0435143934344F3402108EF08F8E1C3CBDF2CC
:20F28000BD271A8E1C3CA6A081FF2604A7E42008810026F26CE420E38EF0D420022003BDA7
:20F2A000F3D5350235343934028E1C3CA680270A812027068124270220F23502393434862E
:20F2C000003402A6842726812027228122271E810D271AE6A42728C1202724C1222720C1F0
:20F2E0000D271C8A203001A1A027D82024E6A42724C1202720C122271CC10D27182012A657
:20F300008427128120270E8122270A810D2706200086FFA7E43502353481003986FFB71CE9
:20F320003B7F1C3CFC0011FD0016B61C29810D26278620F60015ED9F00117F00137C001455
:20F34000B60014B11C0B2D067A0014BDF45CBDF492BF00117F1C3B39108E1C3CBE0016B69B
:20F360001C3A34022604A6A4261EB61C3A270FA6A0270BF60015ED816AE4270C20F135024D
:20F380008620A7818D1520A23502A6A0A7818D0BA6A02796F60015ED8120F53456FE0011D4
:20F3A00011B31C002D0ABDF420355635507EF07DFE0016B61C0784072618B600104C840F0F
:20F3C0008AF0B70010F61C3A585CA7C55A33C5FF00113556393412A68027072B05BDF3E5FB
:20F3E00020F5351239341681202C09810A2603BDF43D2029BDF492F60015ED847C0013B669
:20F400000013B11C0A2C0220147F00137C0014B60014B11C0B2D06BDF45C7A00143516398A
:20F4200034167F00137F0014BDF4928E04008620F60015ED818C1C002DF935163934127F52
:20F4400000137C0014B60014B11C0B2D067A0014BDF45CBDF492BF00113512393436108EFE
:20F460000400F61C0A8E040030853085EC81EDA1BC1C002DF78E0400F61C0B5A58B61C0A3C
:20F480003D308B8620F60015ED81BC1C002DF935363934068E0400B60014F61C0A583D303C
:0DF4A0008BF60013583085BF00113506397A
:20FE0000526574726F20363830392076302E31200A00456D756C61746F7220636F6D70690F
:20FE20006C6564206F6E2000436F70797269676874202843292032303233204279204A6176
:12FE400079204661726965730A0A0052656164790A00AA
:10FFF000F000F004F008F00CF010F014F018F01C11
:00000001FF
