:1B0000000000F022F024F026F028F02AF02CF030B400000000B40000000000D3
:20F000006E9F00006E9F00026E9F00046E9F00066E9F00086E9F000A6E9F000C6E9F000E50
:20F0200020FE20FE20FE20FE20FE20FE20FE20FE10CE0400CE0000FF0000CE0400860CB716
:20F040001C02868EB71C088689B71C0986B4B70010B70015BDF46B8EFE00BDF4208EFE1DC9
:20F06000BDF4208602B71C91B61C9C2705BDF43020F6860ABDF4308EFE33BDF4208EFE565F
:20F08000BDF420BDF36EBDF14481FE27F620EE2000636C7300636F6C6F72006C6F616400C4
:20F0A0006578656300726573657400646972006364006368646972006578697400FFF15579
:20F0C000F158F169F177F1B2F1F2F1F8F21CF21CF25420004552524F523A2053796E746141
:20F0E000780A004552524F523A204469726563746F7279204E6F7420466F756E640A004539
:20F1000052524F523A2046696C65204E6F7420466F756E640A004552524F523A2046696C5A
:20F1200065204E6F74204F70656E0A004552524F523A2057726F6E672046696C65205479DF
:20F1400070650A00BDF2C481FF2702200139488EF0BEAD963986FE39BDF28C2605BDF46B1B
:20F1600020068EF0D4BDF42039BDF28C260220068EF0D4BDF420397F1C9BBDF25A12A680B1
:20F18000B71C9C26F98609B71C91B61C908180271A8120270E8104270220168EF12CBDF434
:20F1A00020200E8EF116BDF42020068EF0FFBDF42039B61C083402B61C093402B6001534CE
:20F1C00002B61C023402CC000010B300002704AD9F00003502B71C023502B700153502B126
:20F1E0001C092703B71C093502B11C082703B71C08398600B71C9139BDF25A12108E0100BD
:20F20000A680A7A026FA12860BB71C91B61C9D2705BDF43020F6860ABDF43039BDF25A1203
:20F220007F1C9BA680B71C9C26F9860DB71C912010B61C90844027098EF0E3BDF4207F1C9A
:20F2400090860EB71C91BDF430B61C9C2705BDF43020F6398601B71C913934028E1C3EA693
:20F26000802704812026F835023934041F89C030C1092E0220111F89CA20C1662E04C057B7
:20F280002005350486FF391F983504393414BDF2F9A680272A812427041CFB2024E6022788
:20F2A000F8C12026F44F3402A6808DBE48484848A7E4A6808DB4AAE4A7E43502B700151A1D
:20F2C0000435143934344F3402108EF08F8E1C3EBDF30F271A8E1C3EA6A081FF2604A7E453
:20F2E0002008810026F26CE420E38EF0D420022003BDF420350235343934028E1C3EA68075
:20F30000270A812027068124270220F2350239343486003402A6842726812027228122274F
:20F320001E810D271AE6A42728C1202724C1222720C10D271C8A203001A1A027D82024E65B
:20F34000A42724C1202720C122271CC10D27182012A68427128120270E8122270A810D276F
:20F3600006200086FFA7E43502353481003986FFB71C3D7F1C3EFC0011FD0016B61C2B81F1
:20F380000D26278620F60015ED9F00117F00137C0014B60014B11C0B2D067A0014BDF4A7E8
:20F3A000BDF4DDBF00117F1C3D39108E1C3EBE0016B61C3C34022604A6A4261EB61C3C27E1
:20F3C0000FA6A0270BF60015ED816AE4270C20F135028620A7818D1520A23502A6A0A7818D
:20F3E0008D0BA6A02796F60015ED8120F53456FE001111B31C002D0ABDF46B355635507E8A
:20F40000F07DFE0016B61C074444448407B70010F61C3C585CA7C55A33C5FF0011355639E0
:20F420003412A68027072B05BDF43020F5351239341681202C09810A2603BDF4882029BD79
:20F44000F4DDF60015ED847C0013B60013B11C0A2C0220147F00137C0014B60014B11C0B0A
:20F460002D06BDF4A77A001435163934167F00137F0014BDF4DD8E04008620F60015ED8141
:20F480008C1C002DF935163934127F00137C0014B60014B11C0B2D067A0014BDF4A7BDF446
:20F4A000DDBF00113512393436108E0400F61C0A8E040030853085EC81EDA1BC1C002DF704
:20F4C0008E0400F61C0B5A58B61C0A3D308B8620F60015ED81BC1C002DF935363934068E6E
:18F4E0000400B60014F61C0A583D308BF60013583085BF001135063980
:20FE0000526574726F2036383039204B65726E656C20762E302E32322E34200A00456D7525
:20FE20006C61746F7220636F6D70696C6564206F6E2000436F7079726967687420284329A9
:1DFE40002032303234204279204A6179204661726965730A0A0052656164790A0011
:10FFF000F000F004F008F00CF010F014F018F01C11
:00000001FF
