:20F000007EF1E0526574726F2036383039204B65726E656C20524F4D2056302E340A0045B8
:20F020006D756C61746F7220636F6D70696C65642000474E552047656E6572616C20507592
:20F04000626C6963204C697363656E7365202847504C205633290A00436F70797269676874
:20F06000742028432920323032342D32303235204279204A6179204661726965730A0A00DD
:20F0800052656164790A00636C7300636F6C6F72006C6F61640065786563007265736574A8
:20F0A000006469720063640063686469720070776400657869740071756974006D6F6465D3
:20F0C0000064656275670068656C7000FFF2BEF2DAF331F36CF371F377F389F389F393F343
:20F0E000A6F3A7F3ADF3D2F4034552524F523A20436F6D6D616E64204E6F7420466F756EC8
:20F10000640A002076616C696420636F6D6D616E6473206172653A0A2020636C732C202055
:20F1200020636F6C6F722C206C6F61642C0A2020657865632C202072657365742C206469E1
:20F14000722C0A202063642C2020202063686469722C207077642C0A2020657869742C2037
:20F1600020717569742C20206D6F64650A202064656275672C20616E642068656C700A00F8
:20F18000F493F4B6F4EFF52BF549F569F59FF627F640F668F680F6B5F711F735F749F75E70
:20F1A000F773F788F79DF7B2F7C7F7D6F7E5F7F4F803F812F821F84DF85EF86FF88DF89E9C
:20F1C000F8AFF8D2F8E4F8F6F916397EF1CB7EF1CE7EF1D17EF1D47EF1D77EF1DA7EF1DDD7
:20F1E000FC000E1083000027046E9F000E8EFFF0CE0000EC81EDC18C00002DF7CCF22CFD2F
:20F20000000E860FB7FE008E0010CC0000BF0400ED818CF00026F68EF180108E0010A68090
:20F22000A7A08CF1CA2DF7860AB7FE0010CE0400864BB7005C86F1C660FDFE0B103F018E90
:20F24000F003103F058EF01F103F058602B7FE59B6FE622705103F0220F6860A103F028EC8
:20F26000F032103F058EF058103F05B6FE288A08B7FE28F6005C8EF080103F05867FB7FE45
:20F28000437FFE417F01008E01006F808C017F2DF9BDF59BBDF6B17D0100270D81FF271023
:20F2A000483001108EF0CDADB67D010027E320C38EF0E9BDF52720F1103F007EF2BB6D84F0
:20F2C000270FA68481FF2709BDF9124D2703B7005C8620F6005CBDF48F396D84270DBDF980
:20F2E000124D270781FF2703B7005C394552524F523A2046696C65204E6F7420466F756E1E
:20F30000640A004552524F523A2046696C65204E6F74204F70656E0A004552524F523A202A
:20F3200057726F6E672046696C6520547970650A00BDF361860AB7FE59B6FE588101271AD6
:20F340008102270E8105270220168EF319BDF527200E8EF303BDF52720068EF2ECBDF527A7
:20F36000397FFE61A680B7FE6226F939AD9F0000398600B7FE59398DE8860CB7FE59B6FEC6
:20F38000662705BDF4B220F6398DD6860EB7FE597EF393860FB7FE597FFE61B6FE6227055D
:20F3A000BDF4B220F639128601B7FE59396D84270BBDF912B7FE0C8620BDF48F392000656B
:20F3C0006E61626C65640A0064697361626C65640A00B6FE0A84802715B6FE0A847FB7FE07
:20F3E0000A8EF3BDBDF5278EF3C8BDF52739B6FE0A8A80B7FE0A8EF3BDBDF5278EF3BFBDF6
:20F40000F527398EF103BDF52739F472F48BF4ACF4E7F507F521F53FF561F597F61FF63838
:20F42000F660F678F6ADF70AF72DF741F756F76BF780F795F7AAF7BFF7CEF7DDF7ECF7FB91
:20F44000F80AF819F845F856F867F885F896F8A7F8CAF8DCF8EEF90EEE6AE6C43341EF6AB3
:20F46000CEF40A5833C51183F4582C026ED47EF4763BBDF4763BCC01008E0400C30001ED8B
:20F4800081C30001BCFE0D2DF620EEBDF48F3B6E9F00103416B6005CC6208E0400ED81BC99
:20F4A000FE0D2DF97F005A7F005B3596A661BDF4B23B6E9F001234171F89B6005C5D27252B
:20F4C000C10A2605BDF4EB201CC1092605BDF50B2013BDF545ED847C005AB6005AB1FE1369
:20F4E0002D03BDF4EB3597BDF4EB3B6E9F001434167F005A7C005BB6005BB1FE142D067A01
:20F50000005BBDF5653596BDF50B3B3404F6005ACB04C4FCF7005AF1FE132D03BDF4EB354B
:20F5200084AE64BDF5273B6E9F001634561F13BDF545A6C02707BDF4B2300120F535D6BD46
:20F54000F545AF643B6E9F00183406B6005BF6FE13583D8E0400308BF6005A584F308B35E3
:20F5600086BDF5653B6E9F001A34568E04001F13F6FE13584F33CBECC1ED8111B3FE0D2D7B
:20F58000F6B6005CC620ED81BCFE0D2DF97DFE4227037A005E35D6BDF59B3B6E9F001C3473
:20F5A00057FC005AFD005D8601B7FE42FC005DFD005ACE0100F6FE41F7005F7D005F270CAD
:20F5C0007A005FA6C02705BDF4B220EF8620F6FE0358C4F06DC42702A6C0BDF5451E89ED5A
:20F5E000847C005AA6C02705BDF4B220F78620BDF5458620F6005C1E89ED84B6FE3027AC41
:20F60000810D26A87FFE42BDF545B6005CC620ED1EFC005DFD005A8E0100BDF52735D7BDF4
:20F62000F6233B6E9F001E3405F6FE3026FBF6FE2E27FBB6FE303585BDF63C3B6E9F002094
:20F6400034018DDF81302DFA8139231281412DF28146230A81612DEA8166230220E43581AE
:20F66000BDF6643B6E9F002234018DB781302DFA8139230220F43581BDF67C3B6E9F002474
:20F6800034066D8426066DA4271E20106DA42712A6808A20A1A02D042E0820E686018102BB
:20F6A00020098602810120034F81003586BDF6B13B6E9F002634058E0100108E0180A6808A
:20F6C00081412D04815A2E00A7A026F286FFA7A48E0180A680272381FF271F8127270C815E
:20F6E000222708812026EC6F1F20E8A18027E46D8426F8BDF4EB86FF200E860ABDF4B210E3
:20F700008EF0878E01808D053585BDF70D6E9F002834651F134F1F31BDF67C270E4CE6A0F3
:20F72000C1FF27055D26F720ED86FF35E5BDF7313B6E9F002A3407EC84EDA4EC02ED2235F2
:20F7400087BDF7453B6E9F002C34017FFE697FFE6AFDFE6B3581BDF75A3B6E9F002E3401DE
:20F760007FFE737FFE74FDFE753581BDF76F3B6E9F003034017FFE7D7FFE7EFDFE7F35818D
:20F78000BDF7843B6E9F003234017FFE6D7FFE6EFDFE6F3581BDF7993B6E9F003434017F10
:20F7A000FE777FFE78FDFE793581BDF7AE3B6E9F003634017FFE817FFE82FDFE833581BDB2
:20F7C000F7C33B6E9F00383401FCFE6B3581BDF7D23B6E9F003A3401FCFE753581BDF7E1A8
:20F7E0003B6E9F003C3401FCFE7F3581BDF7F03B6E9F003E3401FCFE6F3581BDF7FF3B6E47
:20F800009F00403401FCFE793581BDF80E3B6E9F00423401FCFE833581BDF81D3B6E9F00DC
:20F820004434417FFE6D7FFE6E7FFE6FB7FE707FFE777FFE787FFE79F7FE7A1F30F7FE8512
:20F84000FCFE8335C1BDF8493B6E9F004634118EFE678D243591BDF85A3B6E9F0048341116
:20F860008EFE718D133591BDF86B3B6E9F004A34118EFE7B8D02359134036F84A601BDF450
:20F88000B226F93583BDF8893B6E9F004C34118EFE678D243591BDF89A3B6E9F004E341134
:20F8A0008EFE678D133591BDF8AB3B6E9F005034118EFE7B8D02359134036F84A601812ED6
:20F8C0002706BDF4B24D26F43583BDF8CE3B6E9F00523431108EFE678D2635B1BDF8E03B8B
:20F8E0006E9F00543431108EFE718D1435B1BDF8F23B6E9F00563431108EFE7B8D0235B178
:20F9000034316FA0A6802704A7A420F835B1BDF9123B6E9F00583415E684C1242708BDF8F5
:20F92000CEB6FE7020123001E6808D0E585858583404E6808D04AAE035953404C0302B0C2F
:13F94000C1092304CA20C027C10F2302C6FFE1E01F983987
:10FFF000F1CAF1CBF458F1D1F1D4F1D7F1DAF00034
:00000001FF
